{"abi":[{"type":"receive","stateMutability":"payable"},{"type":"function","name":"execute","inputs":[{"name":"target","type":"address","internalType":"address"},{"name":"value","type":"uint256","internalType":"uint256"},{"name":"data","type":"bytes","internalType":"bytes"}],"outputs":[{"name":"result","type":"bytes","internalType":"bytes"}],"stateMutability":"nonpayable"},{"type":"function","name":"nonce","inputs":[],"outputs":[{"name":"","type":"uint256","internalType":"uint256"}],"stateMutability":"view"},{"type":"event","name":"OperationExecuted","inputs":[{"name":"systemId","type":"bytes32","indexed":false,"internalType":"bytes32"},{"name":"operationId","type":"bytes32","indexed":false,"internalType":"bytes32"},{"name":"opType","type":"bytes32","indexed":false,"internalType":"bytes32"},{"name":"target","type":"address","indexed":false,"internalType":"address"},{"name":"payloadHash","type":"bytes32","indexed":false,"internalType":"bytes32"},{"name":"timestamp","type":"uint256","indexed":false,"internalType":"uint256"}],"anonymous":false}],"bytecode":{"object":"0x608060405234801561000f575f80fd5b506106d88061001d5f395ff3fe60806040526004361061002c575f3560e01c8063affed0e014610037578063b61d27f61461006157610033565b3661003357005b5f80fd5b348015610042575f80fd5b5061004b61009d565b6040516100589190610278565b60405180910390f35b34801561006c575f80fd5b506100876004803603810190610082919061037e565b6100a2565b6040516100949190610479565b60405180910390f35b5f5481565b60605f83836040516100b59291906104d5565b604051809103902090505f7f9d975c9d606f9d0ed5d28e809fe177f93519d6299f8530aada9b0b707b36e3f890505f6100f18289855f54610228565b90505f808154809291906101049061051a565b91905055505f808973ffffffffffffffffffffffffffffffffffffffff168989896040516101339291906104d5565b5f6040518083038185875af1925050503d805f811461016d576040519150601f19603f3d011682016040523d82523d5f602084013e610172565b606091505b5091509150816101b7576040517f08c379a00000000000000000000000000000000000000000000000000000000081526004016101ae906105bb565b60405180910390fd5b7fa2d344b826671603faddc1da0d05cb1984afba6e18de587fe3d23f8779ff70317f68fc488efe30251cadb6ac88bdeef3f1a5e6048808baf387258d1d78e986720c84868d894260405161021096959493929190610600565b60405180910390a18095505050505050949350505050565b5f84848484604051602001610240949392919061065f565b604051602081830303815290604052805190602001209050949350505050565b5f819050919050565b61027281610260565b82525050565b5f60208201905061028b5f830184610269565b92915050565b5f80fd5b5f80fd5b5f73ffffffffffffffffffffffffffffffffffffffff82169050919050565b5f6102c282610299565b9050919050565b6102d2816102b8565b81146102dc575f80fd5b50565b5f813590506102ed816102c9565b92915050565b6102fc81610260565b8114610306575f80fd5b50565b5f81359050610317816102f3565b92915050565b5f80fd5b5f80fd5b5f80fd5b5f8083601f84011261033e5761033d61031d565b5b8235905067ffffffffffffffff81111561035b5761035a610321565b5b60208301915083600182028301111561037757610376610325565b5b9250929050565b5f805f806060858703121561039657610395610291565b5b5f6103a3878288016102df565b94505060206103b487828801610309565b935050604085013567ffffffffffffffff8111156103d5576103d4610295565b5b6103e187828801610329565b925092505092959194509250565b5f81519050919050565b5f82825260208201905092915050565b5f5b8381101561042657808201518184015260208101905061040b565b5f8484015250505050565b5f601f19601f8301169050919050565b5f61044b826103ef565b61045581856103f9565b9350610465818560208601610409565b61046e81610431565b840191505092915050565b5f6020820190508181035f8301526104918184610441565b905092915050565b5f81905092915050565b828183375f83830152505050565b5f6104bc8385610499565b93506104c98385846104a3565b82840190509392505050565b5f6104e18284866104b1565b91508190509392505050565b7f4e487b71000000000000000000000000000000000000000000000000000000005f52601160045260245ffd5b5f61052482610260565b91507fffffffffffffffffffffffffffffffffffffffffffffffffffffffffffffffff8203610556576105556104ed565b5b600182019050919050565b5f82825260208201905092915050565b7f5641554c545f455845435f4641494c45440000000000000000000000000000005f82015250565b5f6105a5601183610561565b91506105b082610571565b602082019050919050565b5f6020820190508181035f8301526105d281610599565b9050919050565b5f819050919050565b6105eb816105d9565b82525050565b6105fa816102b8565b82525050565b5f60c0820190506106135f8301896105e2565b61062060208301886105e2565b61062d60408301876105e2565b61063a60608301866105f1565b61064760808301856105e2565b61065460a0830184610269565b979650505050505050565b5f6080820190506106725f8301876105e2565b61067f60208301866105f1565b61068c60408301856105e2565b6106996060830184610269565b9594505050505056fea26469706673582212205bfb20b50b562669bcdf9e559a1da2c25507e7e71025167a24de749f6dfd0c2264736f6c63430008180033","linkReferences":{}},"methodIdentifiers":{"execute(address,uint256,bytes)":"b61d27f6","nonce()":"affed0e0"},"id":2}